:0E0000000C94C9010C9400000C9400000C94A8
:10000E0000000C9400000C9400000C9400000C9462
:10001E0000000C9400000C9400000C9400000C9452
:10002E0000000C9400000C9400000C9400000C9442
:10003E0000000C9400000C9400000C9400000C9432
:10004E0000000C9400000C9400000C9400000C9422
:10005E0000000C9400000C9400000C9400000C9412
:10006E0000001027E80364000A00010000100001E0
:10007E0010000100FFFFFFFFFFFF000000FF010166
:10008E0001010101010101010101010101011E1E18
:10009E001E1E1E1E1E1E4252414E44004D4F444512
:1000AE004C002A42454C4C002A424F4F54002A52D3
:1000BE00535421002A56455223002A4752503100EC
:1000CE002A47525032002A47525033002A47525084
:1000DE0034002A47525035002A47525036002A47DC
:1000EE00525037002A47525038002A5A4E303100AB
:1000FE002A5A4E3032002A5A4E3033002A5A4E3087
:10010E0034002A5A4E3035002A5A4E3036002A5ABA
:10011E004E3037002A5A4E3038002A5A414C4C0085
:10012E0053524300564F4C004D55540050575200F9
:10013E004752500042415300545242005354410022
:10014E0053455400564552003030003031003032A5
:10015E000030330030340030350030360030370098
:10016E00303800555000444E004C440023494E494F
:10017E00540D0A0023253032642C312C302C2530BE
:10018E0032642C2D253032640D0A00242530326461
:10019E002C2563253032642C2563253032640D0AFC
:1001AE0000235A414C4C4F4E0D0A00235A414C4CE1
:1001BE004F46460D0A00235A414C4C4D5554255876
:1001CE000D0A00235A414C4C4D555430300D0A0047
:1001DE00235A414C4C20253032640D0A0023253021
:1001EE0032642C312C25642C253032642C2D253094
:1001FE0032640D0A002372734D6573736167653D3A
:10020E003D307830330D0A002372734D6573736180
:10021E0067653D3D307830340D0A00232530326459
:10022E002C25642C25642C253032642C2D2530325F
:10023E00640D0A004D55544530300D0A002A4331E5
:10024E003A002C00233F0D0025700D0A0052544930
:10025E000041442D38780023554E4D5554452530D8
:10026E0032580D0A00234D555445253032580D0A8B
:10027E000023424F4F543A0D0A0023524553455422
:10028E000D0A00237625700D0A00332E303300231D
:10029E003F0D0A0023475250253032642530325824
:1002AE000D0A0023475250253032645352432530F5
:1002BE0032580D0A0023475250253032644F4E25D6
:1002CE003032580D0A0023475250564F4C2C002501
:1002DE00303258002347525025644D555425303244
:1002EE00580D0A0023475250253032644F4646259A
:1002FE003032580D0A00234558544D5554454F4E33
:10030E000D0A00234558544D5554454F46460D0A87
:10031E000023475250414C4C2C002347525025305D
:10032E0032584F46460D0A00235A4E4F4E25303254
:10033E00580D0A0001002D4E414E00494E46000058
:10034E000A0004008200080005028C0008000D025D
:10035E009400080015029C0023006A02A4002F00DE
:10036E008E02C8003500BE02F8002700F4022E01EE
:10037E0023001C035601050000024B02010042033C
:10038E0042030000F894EE27ECBBF1E0FBBFEBBF9D
:10039E00E5BFE6BFF8E1F1BDE1BD8DE0A2E0BB2710
:1003AE00ED938A95E9F780E094E0A0E0B1E0ED935B
:1003BE000197E9F7EEE4F3E085919591009761F0EE
:1003CE00A591B59105901590BF01F00105900D9284
:1003DE000197E1F7FB01F0CFEFEFEDBFE4E0EEBFE9
:1003EE00C0E0D2E00C94990AAA9385E88A95F1F7B9
:1003FE00159BFECFE881E3B985E38A95F1F7219647
:10040E000895E0E8E0936100E0E0E0936100EBBB6B
:10041E00EABBE8BBE7BBE5BBE4BBE2BBECEFE1BB91
:10042E00EFEFE7B9E0E0E6B9E3BFE2BFE1BFEFBD52
:10043E00EEBDEDBDECBDE5BDE4BDEBBDEABDE9BD78
:10044E00E8BDE6BDE7BDE3BDE2BDE0938B00E09302
:10045E008A00E0938900E0938800E0938100E093A6
:10046E008000E0938700E0938600E0938500E093A0
:10047E008400E5BFE6BFE9BFE0937D00EBB9E8E19C
:10048E00EAB9E6E8E0BDE0E0E0BDE3E3E9B9E0E0CB
:10049E00E2B9E8E1E1B9E6E8ECBFE0E0ECBFE3E3A6
:1004AE00E0B9E0E8E8B90895AA93A9819DDFA88193
:1004BE009BDFC9C01A930A93E1E0F0E0FA93EA9346
:1004CE00A8E56FD0E2E0F0E0FA93EA93AFE469D0EA
:1004DE0000E010E00830E0E01E078CF40E940916E0
:1004EE00E0E00E940E16EC91D001EC93E5E07E2E3A
:1004FE000E941416AC9155D00F5F1F4FEBCF85C1E4
:10050E001A930A93A1E0B0E05AD0E83529F4A2E09C
:10051E00B0E055D0EF3409F019C000E010E008301B
:10052E00E0E01E0794F4F801EF5AFD4FFF93EF93AE
:10053E00D8011A9644D0AF91BF910E940E16EC913D
:10054E00D001EC930F5F1F4FEACF05C0B3DFEAE790
:10055E00F1E00E94191659C11A930A9300E010E0B7
:10056E000830E0E01E07E4F40E9409160C90A9E49E
:10057E00B2E0A00FB11FEC91E01579F00E941416B5
:10058E00AC910FD0F801E75BFD4F0F010E940916E9
:10059E00EC91D001EC93E5E07E2E0F5F1F4FE0CF84
:1005AE0034C1AA93E199FECFE981FA81FFBBEEBB7C
:1005BE00E881EDBBE4E0ECBBE19A23960895BA9393
:1005CE00AA930CB2A0E0E199A1E0E1E00E94FD192E
:1005DE00E021B9F7E881F981FFBBEEBBE09AEDB3FC
:1005EE0032C0AA931A9318E08DE08A95F1F7929A89
:1005FE009498939895988DE08A95F1F71030D1F0F4
:10060E0093988BE18A95F1F795988BE18A95F1F79E
:10061E00E981EE0FE98308F004C0959A8BE18A9583
:10062E00F1F788E28A95F1F7939A115083E48A954F
:10063E00F1F7E4CF93989598949A929894988DE0C8
:10064E008A95F1F7188122960895BA93AA93239763
:10065E00E0E0E983EA830E94611A20E030E058E08E
:10066E0040E000E010E0989904C00130E0E41E077D
:10067E0008F004C039980F5F1F4FF5CF399A01303B
:10068E00E2E01E0720F490D0EBE3F0E089C00130E9
:10069E00E0E41E0798F400E010E0989B03C00E946F
:1006AE00201609F403C00F5F1F4FF7CFD801E3E008
:1006BE00F0E00E94081A9F01399806C0EBE3F0E0C3
:1006CE00E987FA870FEF1FE30E94201659F000E02A
:1006DE0010E0989903C00E94201609F403C00F5F22
:1006EE001F4FF7CF399A0E94201609F444C000E03C
:1006FE0010E0E0E0EE83AE81A430E8F558E0503033
:10070E00F1F000E010E0989B09C0989B03C00E9496
:10071E00201609F403C00F5F1F4FF7CF3998989931
:10072E0003C00E94201609F407C0440F02171307D6
:10073E0008F04F5F989BFECF399A5150E0CFEE8173
:10074E00E03039F4403021F0A41611F0E5E0EE83EC
:10075E000EC0E13029F44B3111F0E5E0EE8307C015
:10076E00E23011F4488703C0E33009F44F83EE8181
:10077E00EF5FEE83C0CFAE81A63019F4EBE3F0E06D
:10078E000FC0AF81EFEF0E94F819A885EA2719F084
:10079E00E885F0E003C0E985FA85FB96E987FA87DC
:1007AE000E94681A2B9608950E94631A00E010E0CA
:1007BE0030E00130E0E41E0798F400E010E0989B72
:1007CE0005C0E1E0F0E4E017F10709F404C0399A3E
:1007DE000F5F1F4FF4CF3998989BFECF3F5FE9CF45
:1007EE00399A0E946A1A249608951A930A9300E978
:1007FE0010E10E942516E12FEB5FEA93A0E054DE94
:10080E00105F0E942D161017A0F3099119910895EB
:10081E00AA9323970E94611A00E010E02FE1EC8565
:10082E002E23EC85FD85E070EF83F8870E94E91991
:10083E00EF83F887E985EE83EF5FEE8330E000E02B
:10084E0010E0989B04C00130E0EC1E0708F007C0D2
:10085E000F5F1F4FE3B3AB85EA234E2FF2CF01306C
:10086E00E0EC1E0708F07EC000E010E000E010E0B3
:10087E00989903C00E94311609F403C00F5F1F4FF1
:10088E00F7CF00E010E0989B03C00E94311609F4E8
:10089E0003C00F5F1F4FF7CF989903C00E94311608
:1008AE0009F403C00F5F1F4FF7CF0130E8E01E07BA
:1008BE0020F400240016010608F003C000E010E04A
:1008CE0002C00FEF1FEF989B03C00E94311609F470
:1008DE003BC03F5F3230B1F5233061F4A9850E94F1
:1008EE003616E1500E943B16AF3F21F40E9442168D
:1008FE00A0E0A083243061F4A9850E943616EF5F34
:10090E000E943B16AB3420F00E944216ABE4A0834B
:10091E00E2E8F1E00E944716EF85F0E0EB5FFD4F55
:10092E000E945016EB890E9457168CE00E944614C6
:10093E002E960E9442165081EA85EA93A52FB4DDC9
:10094E0030E002C00E945B16989B03C00E943116D5
:10095E0009F403C00F5F1F4FF7CF0130E0EE1E0703
:10096E0008F484CF0E94681A2E960895AA932897A9
:10097E00EBE2EC83E0E0ED83EBE2EE83E0E0EF838D
:10098E000E94611A00E010E03FE140E0E9893E2359
:10099E00EF85E07FEF83E295EF70EF83EE85EE83D8
:1009AE00EF5FEE8300E010E0989B04C00130E0ECB6
:1009BE001E0708F007C00F5F1F4FE3B3A889EA2395
:1009CE005E2FF2CF0130E0EC1E0708F016C100E0FA
:1009DE0010E000E010E0989903C00E94311609F46F
:1009EE0003C00F5F1F4FF7CF00E010E0989B03C0CE
:1009FE000E94311609F403C00F5F1F4FF7CF98996D
:100A0E0003C00E94311609F403C00F5F1F4FF7CFCA
:100A1E000130E8E01E0720F400240016010608F05D
:100A2E0003C000E010E002C00FEF1FEF4F5F453034
:100A3E0009F0D3C0989B03C00E94311609F4CCC0B4
:100A4E003F3029F50E945F16A63168F00E946516A8
:100A5E00E250EC930E945F16A43121F40E946B16B3
:100A6E00A0E0A0830CC00E946516EE5FEC930E947E
:100A7E005F16AE3021F40E946B16ACE0A0830E948C
:100A8E006B162081263110F02451205874C030315D
:100A9E0029F50E945F16A43168F00E946516EE5F7C
:100AAE00EC930E945F16A23221F40E946B16A0E214
:100ABE00A0830CC00E946516E250EC930E945F1654
:100ACE00AE3F21F40E946B16A6E1A0830E946B1626
:100ADE002081263110F0245120584DC0313129F596
:100AEE000E947016A63168F00E947616E250EC93C2
:100AFE000E947016A43121F40E947C16A0E0A083FF
:100B0E000CC00E947616EE5FEC930E947016AE300B
:100B1E0021F40E947C16ACE0A0830E947C162081FA
:100B2E00263110F02451205826C0323121F50E9472
:100B3E007016A43168F00E947616EE5FEC930E9458
:100B4E007016A23221F40E947C16A0E2A0830CC083
:100B5E000E947616E250EC930E947016AE3F21F47E
:100B6E000E947C16A6E1A0830E947C16208126316D
:100B7E0010F024512058EF85EA93A22F0E9481167F
:100B8E000E946B16E081E9870E947C16E081E8875F
:100B9E00EBE2EC87EA870E945F16A53128F0EDE2C2
:100BAE00EC87E985E451E9870E947016A53128F09B
:100BBE00EDE2EA87E885E451E887E9E9F1E00E9491
:100BCE0047160E948416E88D0E949116EA8D0E94A7
:100BDE0091160E94971640E002C00E945B16989BE9
:100BEE0003C00E94311609F403C00F5F1F4FF7CFE9
:100BFE000130E0EE1E0708F4ECCE0E94681A6396F0
:100C0E000895AA930E94631A30E110E01830A0F400
:100C1E00ED81EA93AD8148DCED81E05FED830E94CA
:100C2E009C1600810E94A1163A93A02F3DDC305FE6
:100C3E000E942D161F5FEACF552420E0283040F485
:100C4E00E22FF0E0EB5FFD4FAC81A0832F5FF6CF7C
:100C5E0065C4AA936397EBE2ED83E0E0EE83EBE2EB
:100C6E00EF83E0E0E887E1E0E987E0E0EA87EBE3A5
:100C7E00EB870E94611A3BE3E98DE07E0E2FE98D32
:100C8E00EF711E2F173110F01B3309F44EC0E98D92
:100C9E00E7701E2F003E29F5E12FE13029F40E9466
:100CAE00A5160E9419161CC0E23039F40E94AD162A
:100CBE00E9EBF1E00E94191613C0E33061F495DD03
:100CCE00E82DE0955E2E0E94B316E52D0E9491163A
:100CDE000E94B81605C0E43019F40E94BD16582CB7
:100CEE0023C01F5F10930502E0910502E887E5E13E
:100CFE00EA93A98586DFE885EE8BE0E0EF8BAF897E
:100D0E00A83040F40E94C316AE89A083EF89EF5F2E
:100D1E00EF8BF5CFEEEDF1E0FA93EA93EA850E94C0
:100D2E0091160E94B81688241BE31B3359F0E98DE7
:100D3E00E07E0E2FE02FE6952E2F205FE22FE2951C
:100D4E00EF70EF8B1B3309F460C3EF89E88BEF89EB
:100D5E00E150EF8BEE8BE1E0EA8BEE89E03039F07B
:100D6E00EA89EE0FEA8BEE89E150EE8BF6CFEA8937
:100D7E00EB8BAB89EFEFEA27EC8B0E94C316508109
:100D8E000E94C816E88F0E94C816EF830E94C316F1
:100D9E00E081E887E2E0E71509F47A94E0E0EE837B
:100DAE00EB89E52111F0E1E0EE83E12FE33021F54F
:100DBE00EB89E82111F0EC898E22EB89E52139F0DF
:100DCE000E94CE1611F4552434E0EFE00FC0AF8927
:100DDE000E943616E1500E94D416AF3F31F4EF89CF
:100DEE00F0E0EB5EFD4FA0E0A083E0EFE98B0E9408
:100DFE00C816E88F36E0F9C1E43021F5EB89E82119
:100E0E0011F0EC898E22EB89E52139F00E94CE1685
:100E1E0011F4552434E0EFE00FC0AF890E9436166E
:100E2E00EF5F0E94D416AB3430F0EF89F0E0EB5E4A
:100E3E00FD4FABE4A083E0EFE98B0E94C816E88F6C
:100E4E0036E0D3C1EF3071F5EB89E82151F5EB892E
:100E5E00E52139F50E94DB16A63168F00E94E116F5
:100E6E00E250EC930E94DB16A43121F40E94E716A7
:100E7E00A0E0A0830CC00E94E116EE5FEC930E94EE
:100E8E00DB16AE3021F40E94E716ACE0A0832D5F96
:100E9E000E94E7160E94EC1610F00E94F116EFEF7A
:100EAE00E98BA3C1E03171F5EB89E82151F5EB89AE
:100EBE00E52139F50E94DB16A43168F00E94E11697
:100ECE00EE5FEC930E94DB16A23221F40E94E7162D
:100EDE00A0E2A0830CC00E94E116E250EC930E94A7
:100EEE00DB16AE3F21F40E94E716A6E1A0832D5F2C
:100EFE000E94E7160E94EC1610F00E94F116EFEF1A
:100F0E00E98B73C1E53191F4EB89E82171F4EB893A
:100F1E00E52159F40E94E716A0E0A0832D5F0E9400
:100F2E00E716E081E88FEFEFE98B5FC1E13171F5F4
:100F3E00EB89E82151F5EB89E52139F50E94F71689
:100F4E00A63168F00E94FD16E250EC930E94F7164F
:100F5E00A43121F40E940317A0E0A0830CC00E94CC
:100F6E00FD16EE5FEC930E94F716AE3021F40E9450
:100F7E000317ACE0A0832C5F0E9403170E94EC16AF
:100F8E0010F00E94F116EFEFE98B2FC1E23171F5EF
:100F9E00EB89E82151F5EB89E52139F50E94F71629
:100FAE00A43168F00E94FD16EE5FEC930E94F716D6
:100FBE00A23221F40E940317A0E2A0830CC00E946B
:100FCE00FD16E250EC930E94F716AE3F21F40E94FC
:100FDE000317A6E1A0832C5F0E9403170E94EC1654
:100FEE0010F00E94F116EFEFE98BFFC0E63191F49D
:100FFE00EB89E82171F4EB89E52159F40E9403177E
:10100E00A0E0A0832C5F0E940317E081E88FEFEF32
:10101E00E98BEBC0E73011F0E83009F402C0E9309B
:10102E0009F402C0EA3009F402C0EB3009F402C040
:10103E00EC3009F402C0ED3009F402C0EE3081F557
:10104E00E12FE650E8870E94C316A885A083E0E052
:10105E00EE835885EFE0E98B30E0E0915E02F0918F
:10106E005F023097E1F0E0916202F09163023097F7
:10107E0081F00E940817E0916402F09165023097AA
:10108E0019F00E940C1704C0E0E0EE83EC895E229A
:10109E0005C00E94141750E0EBE4E88F36E0A5C0BF
:1010AE00E43159F4EB89E82121F0E0E0EF87EE839B
:1010BE0002C0E1E0EF8736E098C0E331C1F4EB897E
:1010CE00E82169F450E0EBE4E88F0E941417E0E0A9
:1010DE00EE83772019F4EFEF4E2E319A04C00E9462
:1010EE000817E0E0EE83EFE0E98B36E07EC0E130FA
:1010FE0059F4EB89E82121F00E940817E0E0EE8315
:10110E00EFE0E98B36E071C0E23091F450E0EBE4B1
:10111E00E88F36E00E941417E0E0EE83772029F482
:10112E00EFEF8E2E5E2E32E0319AEFE0E98B5DC04E
:10113E00E03011F5EB89E821C9F436E0EB89E521C1
:10114E0069F450E0EBE4E88FEB895E2AE1E0EE8390
:10115E00772019F4EFEF5E2E33E005C00E94CE1615
:10116E0011F4552434E0EFE0E98B05C0EBE3E98B95
:10117E0036E0E0E0EE8339C0E530C9F4EB89E821D2
:10118E0091F4EB89E62119F0EB89E92109F40AC003
:10119E0036E00E940C17772019F4EFEF5E2E33E045
:1011AE00EFE0E98B03C0EBE3E98B36E01EC0E630DF
:1011BE00E1F4EB89E821B1F4EB89E62119F0EB8932
:1011CE00E92109F40EC036E0E0E0EE83EB89E5217B
:1011DE0031F0EC895E22772011F4552434E0EFE0F3
:1011EE00E98B03C0EBE3E98B36E0E1E0EF87772094
:1011FE0011F0E0E0EF87452FA989AB3309F478C0F1
:10120E00772011F4AF3009F02BC0403071F0E0E0E0
:10121E00ED8BAD89A83048F4ED89F0E0EB5FFD4F22
:10122E004083ED89EF5FED8BF4CF25E1E0E0ED8BB0
:10123E00AD89A830A8F42A93A42F36D90E94A116FE
:10124E00ED89F0E0EB5EFD4FE081E88FE22FE55097
:10125E00EA93A98D0E948116ED89EF5FED8BE8CFA1
:10126E00772019F0A989AF3F09F412C0E22FEB5F86
:10127E00EA93A42F0E9481162A93A98D0E948116AB
:10128E00403031F00E940817EB896E2A9E2A4F5F7C
:10129E00A989AF3F69F52A93A98D06D90E94E71651
:1012AE00E081EA870E940317E081E9870E94DB163E
:1012BE00A53128F0EDE2ED87EA85E451EA870E9438
:1012CE00F716A53128F0EDE2EB87E985E451E987C1
:1012DE000E941817EC890E949116E98D0E949116B2
:1012EE00EB8D0E9491160E9497160E941D173EDBF1
:1012FE00A989A03F99F40E942617EC850E949116A9
:10130E00EA890E949116EEA10E94911680E10E9438
:10131E00461462960E941D177BDA3DEDE32FE030F6
:10132E0091F4772079F00E942617EC850E94911691
:10133E00EA890E949116EEA10E94911680E10E9408
:10134E004614629662C0E13021F50E94E716E081F4
:10135E00EA870E940317E081E9870E94DB16A13815
:10136E0028F0EDE2ED87EA85E058EA870E94F7164D
:10137E00A13828F0EDE2EB87E985E058E9870E9475
:10138E001817EC890E949116E98D0E949116EB8D2B
:10139E0035C0E23029F4E9EBF1E00E94191635C0B0
:1013AE00E33029F4E3E0F2E00E9419162EC0E43097
:1013BE0029F4E6E1F2E00E94191627C0E63029F57D
:1013CE00E0E0EF87EE83EB89E82139F4E1E0EF8787
:1013DE00EB89E52111F0E1E0EE83E9E2F2E0FA9328
:1013EE00EA93EA890E949116ED890E949116E88986
:1013FE000E949116EE890E949116E98DFF276627AD
:10140E0077270E943C1A0E949716A989AF3009F4DB
:10141E00CBD9319B03C00E945B163198EFEF7E2E25
:10142E00E98DF0E00E94681A6A960895AA930E94C8
:10143E00611A5E8125E110E0183020F5E12FF0E011
:10144E00EB5FFD4F00810E949C16308137FD30E02E
:10145E003B3408F03BE4E52FE1704E2F56954030BB
:10146E0061F42A93A02F20D825500F5F0E94A11659
:10147E002A93A32F19D82B5E01C0205F0E942D1630
:10148E001F5FDACF0E94681A27960895AA931A93BF
:10149E000A9310E100E0083098F4EA81E17051F00F
:1014AE000E9425161B5F1A93A0E00E945B02155046
:1014BE000E942D16105FEA81E695EA830F5FEBCF4F
:1014CE001981088123960895AA930E94631AED81CB
:1014DE00E0950E2F35E110E01830F8F4ED81E17053
:1014EE00A1F03A93AD810E945B0235500E94A11685
:1014FE003A930E949C16A0810E945B023B5FE12FF3
:10150E00F0E0EB5FFD4FAC81A083ED81E695ED83BE
:10151E00305F0E942D161F5FDFCF50220E946A1A85
:10152E002696089567970E940802A52D5AD884EF33
:10153E0091E00197F1F759D9E0E0EABBE7E0EBBBA8
:10154E00E0E0E8BBE5BBE7BBE4BB0E948702A9B2C3
:10155E00A3940E942C1799F0A9E5B2E00E941F1ADD
:10156E003197604070400E94241A0E942C1739F463
:10157E00A82D5CDFE2E4F2E00E941916552400E08B
:10158E0010E0E1E0E71531F400E211E0A02F61DB9D
:10159E00EFEF7E2E5F9B49C70E94FA12E093350251
:1015AE00A0913502AA3221F0A23411F0AD3421F50A
:1015BE002297E0E0E883E983E881F9813196E883B8
:1015CE00F9830E943717FF93EF930E94FA12AF919F
:1015DE00BF91EC930E943717A081AD3031F0AA3045
:1015EE0021F0A881B98153970CF001C0E5CF0E947C
:1015FE003717A0E0A0832296E0E0ED83E09135025C
:10160E00E98BE0913602EA8BE0913702EB8BE091A9
:10161E003802EC8BE0913902ED8BE0E0EE8BE0913D
:10162E003A02ED87E0913B02EE87E0913C02EF87B4
:10163E00E0E0E88BE0913D02EA87E0913E02EB8725
:10164E00E0E0EC87E0935E02E0935F02E5E3F2E018
:10165E00FA93EA93E0E0F2E0FA93EA93A4E00E94B0
:10166E009814E03009F08EC02897E5E3F2E00E946E
:10167E003C17309731F0E0E0F0E00E943C17EE832B
:10168E00FF83EE81FF810E944217AC81BD810E94D3
:10169E00D215E0936002F0936102E1E0F0E0EA839C
:1016AE00FB83AC81BD81109721F0AA81BB81159778
:1016BE0008F01CC0E0E0F0E00E944217EA81FB81D6
:1016CE00A0E6B2E0EE0FFF1FEA0FFB1FFF93EF93B2
:1016DE00AC81BD810E94D215AF91BF91ED93FC9369
:1016EE00EA81FB813196EA83FB83DBCFAA81BB8142
:1016FE00159709F046C0E1E0F0E0E0935E02F0934A
:10170E005F02A0916602B09167020E94571A64F4BC
:10171E00A0916602B0916702199734F4A09160020D
:10172E00B091610219970CF028C0E0916002F0911F
:10173E0061023197EE0FFF1F0E94E019E883F983D3
:10174E00A0916902AA232AF4E0916802E1953E2F46
:10175E0002C0309168023C3408F03BE4E091600234
:10176E00F09161023197EB5EFD4F3083E09166029E
:10177E00EA5FA881AE0F6DDA04C0E2E5F2E00E94E6
:10178E001916289600E010E0E0E0E883E983A881CE
:10179E00B9811897C0F40E944B17AA81BB81E6E06D
:1017AE000E94021AE257FD4F0E94501731F4E88151
:1017BE00F9813196E050FF4E8F01E881F981319623
:1017CE00E883F983E4CF002E012AD9F52497AE855C
:1017DE000E943515F0E0EA87FB87E0E0E883E983B5
:1017EE00EB2DF0E0EA83FB8323E6E0E0EE83AE81AF
:1017FE00A930F0F4FE017596FA93EA93E885A6E017
:10180E00EA9FF001E254FD4F0E94501741F42E81E1
:10181E0008811981EE81A1E00E94D019BE2EE881C7
:10182E00F981B096E883F983EE81EF5FEE83DFCF27
:10183E00233631F420E0E1E0E98700E010E0BA80E1
:10184E002496EFEFEC83BB20A1F0E0E0EA83AA81BF
:10185E00A83078F40E945517E03011F0BB2009F43F
:10186E0004C0EA81EC83E7E0EA83EA81EF5FEA8372
:10187E00EECFED81E03009F04BC0E3E6F0E0E88713
:10188E00F987E0E0EA83AA81AB30C0F4FE013D9611
:10189E00FA93EA93EC81A4EFB2E0F0E00E94E4192F
:1018AE00AE0FBF1F0E946B14E03021F4EA81F0E00E
:1018BE00E887F987EA81EF5FEA83E5CFA885B985E6
:1018CE00A336E0E0BE0711F4E1E0ED83E0E0EE8345
:1018DE00EF83EA83AA81AB30A8F4FE013A96FA931D
:1018EE00EA93EC81A3E0EA9FF001E45EFC4F0E94D4
:1018FE00501721F4EA81F0E0EE83FF83EA81EF5F77
:10190E00EA83E8CFAB85AD3011F4E1E0ED8302C0A0
:10191E00E1E0ED83E0915E02F0915F02309721F0FD
:10192E000FEF10E0E0E0ED830E944B17AAE6B2E065
:10193E000E946B14E03049F4E6E5F2E0FA93EA9384
:10194E00EBE5F2E00E945B1792C00E944B17A0E7F6
:10195E00B2E00E946B14E03049F4E6E5F2E0FA934F
:10196E00EA93EFE5F2E00E945B1781C00E944B17ED
:10197E00A6E7B2E00E946B14E030F1F5AD850E944F
:10198E0060170E946617AE850E9435153E2FEE81B8
:10199E003E0F3030B1F4A42D49DDE0E0E093590262
:1019AE00E0935A02E0935B02E0935C025524E5E675
:1019BE00F2E0FA93EA93E52D0E9491160E94B81672
:1019CE001AC0A32F63DDE3E7F2E0FA93EA93E32F65
:1019DE000E9491160E94B816EE81E0955E2EEFEFF2
:1019EE00FFEF61E070E0E0935902F0935A026093CA
:1019FE005B0270935C023BC00E944B17ACE7B2E0F7
:101A0E000E946B14E03061F4EFE7F2E00E941916C9
:101A1E00A8EEB3E00E943318E0E0FCE1099527C080
:101A2E000E944B17A2E8B2E00E946B14E03039F42A
:101A3E000E946102E8E8F2E00E94191618C00E94A6
:101A4E004B17A8E8B2E00E946B14E03021F0A88595
:101A5E00B985199781F4E1E9F2E0FA93EA93E8E99E
:101A6E00F2E00E945B17E3E6F0E0E887F9870FEFFC
:101A7E0010E0E0E0ED83ED81E03011F00E946D1793
:101A8E004CB15527EFEFF0E0E017F10709F4CDC4A4
:101A9E000030E1E01E0718F4ED81E03009F00EC2CF
:101AAE00E885F9853097A9F4AE81BF810E94571A57
:101ABE0010F4199708F008C0EE81FF8136960E0FCC
:101ACE001F1FA02FC6D804C0E1E0ED830E946D1742
:101ADE00F5C1E130A0E0FA0771F5AE81BF8119972B
:101AEE0021F0AE81BF811A9741F4EE81FF813697C6
:101AFE000E0F1F1FA02FADD81DC0AA850E94351531
:101B0E00AAE0EA9FF001EF93AB850E943515AF91E5
:101B1E00EA0F3E2F3C3450F4E22FF0E0EB5EFD4F27
:101B2E0030830F5F1F4FA02F94D804C00BEA10E034
:101B3E000E946D17C3C1E230A0E0FA0781F4EE8176
:101B4E00FF81309719F40A5F1F4F06C0E130A0E005
:101B5E00FA0711F40B5F1F4FA02F7BD8AFC1E330F4
:101B6E00A0E0FA07B9F4EE81FF81309719F40E5F09
:101B7E001F4F0DC0E130A0E0FA0719F40F5F1F4FA1
:101B8E0006C0E230A0E0FA0711F40D5E1F4FA02F41
:101B9E0060D894C1E430A0E0FA0709F08DC000E0EF
:101BAE0011E1EB2DE0954E2F5527E0E0EA83AA8157
:101BBE00A83040F40E947017E423EC93EA81EF5FA3
:101BCE00EA83F5CF40955095EE81FF81309731F441
:101BDE0000E010E0E0E0E887E98748C0E130A0E0EF
:101BEE00FA0721F0E230A0E0FA0709F404C0E3306E
:101BFE00A0E0FA0709F404C0E430A0E0FA0709F403
:101C0E0004C0E530A0E0FA0709F404C0E630A0E015
:101C1E00FA0709F404C0E730A0E0FA0709F404C09B
:101C2E00E830A0E0FA0701F5EE81E150EA830E9468
:101C3E007017E42BEC93A22FB0E0AB5FBD4FEA819F
:101C4E00F0E0E35FFD4FE081EC93E1E0BE2EEA8130
:101C5E00AB2D0E94D019BE2EEB2DED21EA83EE8125
:101C6E00FF810E0F1F1F02C0E1E0ED83EA81E0301D
:101C7E00B9F000E010E0EE81E150EA830E947517A2
:101C8E00E885F9850E947A17E885F0E0EF5AFD4F56
:101C9E000E9450160E947F17E0E0ED83E1E0EA8398
:101CAE00EA81E03041F4E3E0F0E0E887F987E1E033
:101CBE00F0E0EE83FF8302C1E530A0E0FA0709F001
:101CCE0057C0EB2DE82109F050C0322FAE81BF81F5
:101CDE00199721F0AE81BF811A9781F40E94841763
:101CEE0019F4015F1F4F06C0EA30A0E0FA0711F4A5
:101CFE00005F1F4FA02F0E94300636C0AA850E949B
:101D0E0060170E948A1710F0263140F0213218F425
:101D1E000E94991702C041E050E002C041E050E03D
:101D2E00042E052AF9F42D3060F422502E3F09F4CA
:101D3E0026E1E32FF0E0EB5DFD4F2083015F1F4FA7
:101D4E000DC0263158F02250223209F420E2E32F42
:101D5E00F0E0EB5DFD4F2083005F1F4FA02F0E9430
:101D6E00300602C00E946D1702C00E94AB17A6C0BB
:101D7E00E630A0E0FA0709F057C0EB2DE82109F094
:101D8E0050C0322FAE81BF81199721F0AE81BF8135
:101D9E001A9781F40E94841719F40F5E1F4F06C024
:101DAE00EA30A0E0FA0711F40E5E1F4FA02F0E943A
:101DBE00300636C0AA850E9460170E948A1710F05E
:101DCE00263140F0213218F40E94991702C041E0EA
:101DDE0050E002C041E050E0042E052AF9F42D3007
:101DEE0060F422502E3F09F426E1E32FF0E0E35E8B
:101DFE00FD4F20830F5E1F4F0DC0263158F022502D
:101E0E00223209F420E2E32FF0E0E35EFD4F20835F
:101E1E000E5E1F4FA02F0E94300602C00E946D174B
:101E2E0002C00E94AB174AC0E730A0E0FA0739F4AF
:101E3E000030E1E11E0710F40E94AB173FC0E830FE
:101E4E00A0E0FA07D9F5E22FF0E0EB5DFD4F4081FF
:101E5E005527E22FF0E0E35EFD4FE081F0E0EE83E8
:101E6E00FF83EBE2E98BEA8B4631E0E05E0720F080
:101E7E00EDE2E98B44515040AE81BF81569738F068
:101E8E00EDE2EA8BEE81FF817497EE83FF83E9E941
:101E9E00F1E0FA93EA93E22FEF5F0E949116EF8939
:101EAE000E949116FA010E947A17E8A10E949116DB
:101EBE00E88DF98D0E947A170E949716E0E0F1E006
:101ECE00E017F10719F4ED81E03009F069C000E088
:101EDE0010E0E885F985309799F4AE81BF811997A6
:101EEE0070F4EFE0EA93AF81EFDAEEEDF1E0FA9302
:101EFE00EA93E885F9850E945B178824552450C023
:101F0E00E230A0E0FA07E1F4EE81FF81309721F490
:101F1E00582C0E94BD1613C0E130A0E0FA0779F4E8
:101F2E000E94FC03E82DE0955E2EE82DE0952E2F05
:101F3E000E94B316E22F0E9491160E94B81630C06E
:101F4E00E330A0E0FA07B1F4EE81FF81309739F467
:101F5E000E94AD16EFEFDE2EE9EBF1E006C0E130A8
:101F6E00A0E0FA0731F40E94A516FA93EA930E94B4
:101F7E00B01716C0E430A0E0FA0781F4E0E0EA837F
:101F8E00AA81A83050F4EA81F0E0EF5AFD4FA0E0AC
:101F9E00A083EA81EF5FEA83F3CF02C0E1E0ED8335
:101FAE000030E1E11E0718F0ED81E03009F03BC290
:101FBE00F801EF70F070AF01E42FE1502E2FE22FF9
:101FCE00A1E00E94D019EA83E22FF0E0EF5AFD4F14
:101FDE00E081EB83E885F985309769F5EB81E03098
:101FEE00E1F0E22FF0E0E35FFD4FAE81A083EB81E5
:101FFE00E0958E22EA81E095DE220E94B517E081FF
:10200E00EA93AF8161DAE1EBF2E00E94BA17E22FB8
:10201E00F0E0E35FFD4FE08106C00E947517FA0104
:10202E000E947A17E985FF27662777270E943C1AB8
:10203E000E947F17F8C1E130A0E0FA0709F046C10F
:10204E00AE81BF81199721F0AE81BF811A9709F435
:10205E0015C0EA81ED2191F0EB81E03079F00E941C
:10206E00BE170E94C5170E94CD17E3ECF2E00E9446
:10207E00BA17E9850E9491160E947F17EA81ED2119
:10208E0019F0EDE9F2E0BAC00E94BE17EB81E095BF
:10209E00AE2FCCD90E94CD17AE81BF81199729F0F2
:1020AE00AE81BF811A9709F0ADC040E150E00E94A9
:1020BE00D517A0E0A0833B81E0E0EA83AA81A83097
:1020CE00C8F430FF12C00E94DA17E081E03021F42C
:1020DE000E94D517A0E8A0830E94DA17A081AB3426
:1020EE0021F40E94D517A1E0A0833695EA81EF5F17
:1020FE00EA83E4CF3B8140E150E00E948417E1F592
:10210E000E94D517A081A03811F10E94D517A0E02A
:10211E00A083E0E0EA83AA81A830C8F430FF10C0A3
:10212E00AA810E943616E150EC930E94DA17A08124
:10213E00AF3F21F40E94D517A0E8A0830E94DF17BD
:10214E003695405F5F4FEA81EF5FEA83E4CF0E94EE
:10215E00E617E7E0EA83AA81AF3F69F00E94E9172C
:10216E000E94B816EA81E03011F00E94EF17EA8162
:10217E00E150EA83F0CF40C0EA30A0E0FA0709F060
:10218E0041C00E94D517A081A13011F10E94D51730
:10219E00A0E0A083E0E0EA83AA81A830C8F430FF73
:1021AE0010C0AA810E943616EF5FEC930E94DA17D8
:1021BE00A081AB3420F00E94D517A1E0A0830E942D
:1021CE00DF173695405F5F4FEA81EF5FEA83E4CF1A
:1021DE000E94E617E7E0EA83AA81AF3F69F00E940A
:1021EE00E9170E94B816EA81E03011F00E94EF174D
:1021FE00EA81E150EA83F0CFEFE7F1E0FA93EA9358
:10220E000E94B017AE81BF81199721F0AE81BF81B8
:10221E001A9709F45AC00E94D517A0E0A0830B812B
:10222E001127F801E095F095AF01322FAA850E9493
:10223E006017AE81BF81EAE00E94021AEE83FF832F
:10224E00AB850E9435152E2FEE812E0F203031F4E6
:10225E00E32FF0E0E35DFD4FA0E8A0832B3431F4D3
:10226E00E32FF0E0E35DFD4FA1E0A0832C3438F5C1
:10227E0030E0383058F400FF05C0E32FF0E0EB5E9D
:10228E00FD4F2083169507953F5FF3CFA42FCED831
:10229E000E94E617E7E0EA83AA81AF3F69F00E9449
:1022AE00E9170E94B816EA81E03011F00E94EF178C
:1022BE00EA81E150EA83F0CFEFE7F1E002C0EDE909
:1022CE00F2E0FA93EA930E94B017ADC0E230A0E0BC
:1022DE00FA07C9F5EA81ED2199F5EE81FF81309774
:1022EE00B9F4EB81E0955E2EEB81E095AE2F9ED892
:1022FE00EB81E0958E220E94CD17E2EEF2E00E9475
:10230E00BA17E0915D020E9491160E947F1717C0C6
:10231E00E130A0E0FA0799F4AB81B8D8EB81A09137
:10232E005D02EA2BE0935D02E2EEF2E00E94BA1744
:10233E00E0915D020E9491160E947F175B8002C0A1
:10234E000E946D1770C0E330A0E0FA0749F5EE81E8
:10235E00FF81309751F4AB8199D8EB818E2A5E2A9A
:10236E00EA81DE2AE2EFF2E010C0E130A0E0FA07E7
:10237E00B1F4EB81E03039F00E94BE170E94C51710
:10238E00E3ECF2E002C0E2EAF2E0FA93EA93FA0139
:10239E000E947A17E9850E9491160E947F1743C00A
:1023AE00E430A0E0FA0771F5AA850E9460170E943A
:1023BE006617AB850E9435153E2FEE813E0F0E94AB
:1023CE00B5173083303011F4EA81DE2A3095E0E023
:1023DE00EA83AA81A83050F42A1721F00E947017C0
:1023EE00E323EC93EA81EF5FEA83F3CF0E94751744
:1023FE00FA010E947A170E94B5170E9450160E9489
:10240E007F1711C0E730A0E0FA0759F40E94751744
:10241E00FA010E947A17E9850E9491160E947F1791
:10242E0002C0E1E0ED834CB15527299B05C0A02FDA
:10243E000E9430062999FECF289942C00E94FC03C3
:10244E00E4E0F3E00E941916E42DE1704E2F5527BB
:10245E00E42DE6952E2F042E052A09F020582095FE
:10246E000E94B316E22F0E9491160E94B816E42D18
:10247E00E0955E2E4FEF5FEFE0EAF0E0E887F98738
:10248E00289BFECFE885F985309771F04FEF5FEF0F
:10249E003197E887F987042E052A29F041505040DC
:1024AE00289BE8CFF8CFEECFA82D0E941D0AE1E1C0
:1024BE00F3E00E941916E1EDF1E00E941916582C76
:1024CE0098990FC03998A0E0B1E00E942C038F01BB
:1024DE00399AEBE3F0E0E017F10719F0A02F0E9414
:1024EE0030060E94B302E5E0E71531F5EFE1F3E0C7
:1024FE000E941916E7E0EA83AA81AF3FA9F0EDED3D
:10250E00F2E0FA93EA93EC81F0E0E75BFD4F0E9474
:10251E0050160E94B816EA81E03011F00E94EF17B3
:10252E00EA81E150EA83E8CFEFE7F1E00E94191665
:10253E00EFEF7E2E4CB15527E0E0EA83AA81A8305A
:10254E0050F5EA81AD2D0E94D819E170F0E0EE83CE
:10255E00FF833097E1F4EA81F0E0E75BFD4FA08165
:10256E00E82DE095EA23F0E0E887F987309779F4D3
:10257E00E8E2F3E0FA93EA93EC81EF5F0E949116A2
:10258E000E94B816EA81A1E00E94D019DE2AEA81E3
:10259E00EF5FEA83D3CFE82DEE0F4E2E87FE02C0FB
:1025AE00E1E04E2A4C1499F0A42D0E94F802582C0A
:1025BE00E6E3F3E0FA93EA93E82DE0950E94911694
:1025CE000E94B816C42CEFEFE41509F4DE2EEFEFDF
:1025DE00E41509F0979AEFEFE41509F497980C9427
:1025EE00AE0A0000FECF5F9BFECFECB10895AA931A
:1025FE005D9BFECFE881ECB921960895BA93AA931C
:10260E00AA81F5DFA881B981ED91FD913196FE93F6
:10261E00EE9323960895BA93AA9326970E94611A71
:10262E0010E0AC85BD85E0E0F0E0ED93FC93EA8927
:10263E00FB893196EA8BFB8B3197E4912E2FE0309C
:10264E0009F415C1E12FE03039F4253211F411E00F
:10265E0002C00E94F2170AC1E130A9F4253219F422
:10266E000E94F21702C112E040E000E02D3211F498
:10267E0001E0FCC02B3211F44BE2F8C0203211F411
:10268E0040E2F4C002C0E23039F450E013E02033EF
:10269E0011F40068EBC003C0E33009F0E7C020334B
:1026AE0010F02A3308F007C0AAE05A9F502DE22FEF
:1026BE00E0535E0FDBC0E22FE33649F40E94F917B8
:1026CE00E889F989A481AA930E94FF17CEC0E33747
:1026DE0041F40E94F9170E9405180E947F141E2FC4
:1026EE000AC0E03761F40E94F9170E9405180E9493
:1026FE008B141E2F086002600F7730E034C0E43672
:10270E0011F0E93611F4046002C0E53731F4E0E768
:10271E00F0E0EE83FF8315E00CC0E83511F408609D
:10272E0003C0E83709F0A1C0EAE7F0E0EE83FF83CB
:10273E0014E002FF14C00E94F9170E940F18AB8517
:10274E00AA233AF4EA85FB850E94C419EA87FB871F
:10275E004DE2403011F01F5F01C00B7F04C00E949C
:10276E00F9170E940F1800FD11C0151778F407FF16
:10277E0008C002FF04C00B7F242F115001C020E3BC
:10278E0001C020E20E94F2175150EFCF312F01FF0E
:10279E0017C03030A1F003FF06C0EE81FF812591F6
:1027AE00EE83FF8305C0AE81BF812D91AE83BF83C3
:1027BE000E94F217503009F051503150EACF4BC001
:1027CE0020E3EE81FF810E94291AE887F987EE81C6
:1027DE00FF813296EE83FF83E885F985AA85BB8556
:1027EE00AE17BF0750F02F5FA885B985EA85FB8528
:1027FE00EA1BFB0BEA87FB87EFCF2A3328F003FF98
:10280E0002C0295F01C0295D04FD1AC0213320F4E6
:10281E00A885B985119709F409C0531710F000FF68
:10282E0001C013C020E207FF0BC020E3006102FFCE
:10283E0007C00B7F4A930E94FF17503009F051508A
:10284E000E94F217503009F051503150A885B985C9
:10285E00129708F0B5CF00FF08C0503031F051503C
:10286E00E0E2EA930E94FF17F8CF10E0E0CEAC85CD
:10287E00BD850E941B1A0E94681A64960895FF92E5
:10288E00F82E26971A930A93DE0114960E94C01909
:10289E008D01E0E0EC83ED83EE83EF83DE0118968D
:1028AE000E94C0190E941B1AFA93EA931A930A9374
:1028BE00E5E0F3E1FA93EA93DE011896ACDE1981B6
:1028CE0008812896FF900895BA93AA93E991F991F9
:1028DE00A991B9916D917191671721F46623D1F782
:1028EE00EE270895671BE1F3E1E008F4E250089546
:1028FE00BA93AA93A991B991EE27FF276D916623FA
:10290E0011F03196FBCF0895BA93AA93AA27BB274D
:10291E00E991F9910590002011F01196FBCFFD0180
:10292E000895AA93662777278991E991F991A9913C
:10293E00B991882349F08A956D917191671721F4A9
:10294E006623B9F7EE270895671BE1F3E1E008F47B
:10295E00E2500895BA93AA93BB81AA816C91662323
:10296E0061F0F981E881C895002029F03196601553
:10297E00D1F7FD0104C01196F1CFEE27FF270C947D
:10298E008B15BA93AA93BB81AA81882799276D913B
:10299E00662349F0F981E8810590002021F0601549
:1029AE00D9F70196F4CFFC010C948B15BA93AA9328
:1029BE001A930A93EC81FD81309779F4E0914003EC
:1029CE00F0914103309719F4E0E0F0E02FC0E09170
:1029DE004003F0914103EC83FD830E9417180E947F
:1029EE00C814AC81BD81EA0FFB1FEC83FD83AC8163
:1029FE00BD81EC91E03041F4E0E0E0934003E093E0
:102A0E004103E0E0F0E012C00E9417180E94B114DA
:102A1E008F01309729F0D8010F5F1F4FE0E0EC9344
:102A2E000093400310934103EC81FD8119810881CD
:102A3E0026960895AA93E1E0F991F03310F0FA3357
:102A4E0008F0EE270895AA93E1E0F991F03229F00B
:102A5E00F93010F0FE3008F0EE270895AA93E991B0
:102A6E00E05340F0EA3038F0EF7DE750EA3010F0F6
:102A7E00E03108F0EE2708950E94411A7B816A81A9
:102A8E00F981E88177FB770F67FD7160972F9E576D
:102A9E0081F078F0983190F4AA27BB278827089404
:102AAE008795B795A7959A95D1F7EA23FB236823C7
:102ABE0005C0E8947727EE27FF2766276F77769570
:102ACE0008F4606877F9A991B99189919991EA17FB
:102ADE00FB076807790797FB08950E941E1819F4E3
:102AEE000E94271811C0E6F70E942A180E94D618D5
:102AFE000BC00E941E1819F40E94271805C0E6F399
:102B0E000E942A180E94DD18249608950E94411AE8
:102B1E002497EC81FD816E817F810E94531A29F4E6
:102B2E00E0E0F0E060E070E034C0EC81FD816E81A9
:102B3E007F81A885B9858A859B850E947B190E9415
:102B4E00371A0E9427180E94531A29F4E0E0F0E089
:102B5E0060E070E01EC00E9430180E945B1A24F4E0
:102B6E000E943018BADF03C00E943018C2DF0E94E4
:102B7E00371A0E942718AC81BD818E819F810E94D9
:102B8E002D19A885B9858A859B850E94461A0E94B3
:102B9E00D6182C960895BA93AA93B981A881EC9170
:102BAE008A2FAE2F0E942A15A82FEE2311F0119610
:102BBE00F6CFE894EC91ED3211F4689402C0EB324A
:102BCE0009F4119666277727EC918A2FAE2F0E9473
:102BDE002115A82FEE2379F0FB01660F771F660FE4
:102BEE00771F6E0F7F1F660F771FED91FF27E05344
:102BFE006E0F7F1FE9CFFB011EF4E095F095319625
:102C0E0022960895A1E5B2E0A00FB11F0895EC93AE
:102C1E00F801E75BFD4F0F01F5CFF8013A96FA93F5
:102C2E00EA93F0CFFA93EA9380E00E94461422963C
:102C3E000895EFEFFFE3E017F10708951A93ABE461
:102C4E000E945B02A3E0B0E00C943318A5E1B0E063
:102C5E000C943318EFEFFFEFE017F1070895B0E093
:102C6E00AB5EBD4FEC910895EC93E985F0E0EB5E21
:102C7E00FD4FA0810895E985F0E0EB5EFD4F0895CC
:102C8E00FA93EA93E885FF27662777270E943C1A76
:102C9E000895E081FF27662777270E943C1A089542
:102CAE00F0E0EB5EFD4FF5CFAEE1B0E00C943318E3
:102CBE00EE85F0E0EB5DFD4FA0810895AE85B0E0AE
:102CCE00AB5DBD4FEC910895EE85F0E0EB5DFD4FF1
:102CDE000895EE85F0E0E35EFD4FA0810895AE8588
:102CEE00B0E0A35EBD4FEC910895EE85F0E0E35E9B
:102CFE00FD4F08950E945B02A9CFEA89FF27662740
:102D0E0077270E943C1AEB89FF27662777270E94B8
:102D1E003C1A0895FF27662777270E943C1A0895CC
:102D2E0084E10E94461466960895E12FF0E0EB5E72
:102D3E00FD4F0895A3E0B0E00C9433185524882479
:102D4E00A82D0E941D0AEFEAF1E008950E94FC03EF
:102D5E00EFEF8E2E5E2E0895E4ECF1E0FA93EA93F7
:102D6E00089584E00E94461426960895A82D0E9488
:102D7E001D0AE1EDF1E056CFEF89F0E0EB5FFD4F7C
:102D8E000895EF89F0E0EB5EFD4FE0810895EC8948
:102D9E005E22E0E0EE8377200895EC93EF89F0E079
:102DAE00EB5EFD4FA0810895EF89F0E0EB5DFD4FE6
:102DBE00A0810895AF89B0E0AB5DBD4FEC91089551
:102DCE00EF89F0E0EB5DFD4F0895E081E88FA88D6F
:102DDE00A6310895E88DE451E88FE058E88F089504
:102DEE00EF89F0E0E35EFD4FA0810895AF89B0E07A
:102DFE00A35EBD4FEC910895EF89F0E0E35EFD4FC9
:102E0E000895EC898E225E220895E1E0EE8350E073
:102E1E00EBE4E88FEB895E2A0895EB898E2A5E2A11
:102E2E000895E9E9F1E0FA93EA9367CFE98DF0E0CE
:102E3E00FA93EA93EC89EA932A93AB8D0895EBEE1D
:102E4E00F1E0FA93EA93EA8965CFE0915902F091A5
:102E5E005A0260915B0270915C020E94531A0895AF
:102E6E00E881F981EB5CFD4F0895FA93EA93AEE4A5
:102E7E00B2E00C94DD14FA93EA93A0E5B2E00E945E
:102E8E00DD14EC83FD830895FE017196FA93EA93A7
:102E9E000895DF010E946B14E0300895EA81F0E09E
:102EAE00EF5AFD4FE0810895662777270E943C1A5E
:102EBE0058CF0E943515F0E0EE83FF830895EE8122
:102ECE00FF810E94E019EE83FF830895EDE9F2E0A1
:102EDE00A9CEAA81B0E0AF5ABD4FE0CFE2EAF2E050
:102EEE00FA93EA930895662777270E943C1A08956D
:102EFE0088E00E9446142A960895EE81FF81E930FB
:102F0E00A0E0FA070895AE81BF81EAE00E94021A9E
:102F1E00EE83FF83AB850E9435152E2FEE812E0F8B
:102F2E002D300895E22FFF27662777270E94A318DA
:102F3E000E943C1AA0E0B0E080E090E40E948D1563
:102F4E000E946A18AF0108950C5E1F4FA02F0C94BB
:102F5E00300680E00E94461422960895E22FF0E09B
:102F6E00EF5AFD4F0895FA93EA93FA01BCCFEB8125
:102F7E00E0958E22EB81E0955E220895EA81E09540
:102F8E00DE22EB81E095AE2F0C941D0AEB81E095CD
:102F9E00A0915D02EA23E0935D020895E22FF0E036
:102FAE00E35DFD4F0895EA81F0E0EB5EFD4F08957D
:102FBE004A93EB81F0E0EB5EFD4FA0819BCEE4EDFA
:102FCE00F2E030CEEDEDF2E0FA93EA93EC8168CECA
:102FDE00E0E5F2E027CE2A93AD85BE85EF85F88930
:102FEE0009950895E889F9893497E88BF98B089546
:102FFE00AD85BE85EF85F88909950895A889B989AB
:10300E0014960E941B1AEE83FF83AE81BF81089532
:10301E00A889B98914960E941B1AEA87FB8708951E
:10302E00EC81FD81FA93EA93AC81BD8108950E94F3
:10303E00411A0E94321A0E9443150E94371A0895AF
:10304E000E942D1A0895FCDFA0E0B0E080E89FE317
:10305E0008950E94321A0895109639F080ED97E087
:10306E000197F1F7A8951197C9F70895552342F4E2
:10307E00503811F4E0FF04C03196691F791F6BF0D0
:10308E0050E8572711F45F93CFC05F3F31F0660FC2
:10309E00000C57956795752F08955F9300200AF0E1
:1030AE00CFC0C8C050E8192E1522880F991F95273A
:1030BE00550F879550E8072E0522660F771F752747
:1030CE00550F67950895689401C0E8945F93F2DFF9
:1030DE00703818F07F3F08F4A7C056E1571BAAF4CA
:1030EE00519558300EF4593030F0EFEFFFEF6FEF8F
:1030FE007FE777F91AC077275523B9F0EE0FFF1F38
:10310E00661F771F5A95D1F710C07727583028F0D1
:10311E00EF2FF62F672F5850F9CF552331F07695B4
:10312E006795F795E7955A95D1F700200AF429D1BE
:10313E005F910895689401C0E894309760407040A4
:10314E00B1F0002426F0772312F400941AD1172E32
:10315E007EE1112032F07A95EE0FFF1F661F111CD3
:10316E00F9CFEF2FF62F612D5F938ADF5F910895D0
:10317E004F93AF01FD01DA01AB01BC01CA01402D35
:10318E00012C142E4F910895EA0FFB1F681F08950E
:10319E00E095F0956095EF5FFF4F6F4F08955F9349
:1031AE0081DF903871F150E8152604C05F937ADF05
:1031BE00903839F1703821F1572F591B2BF112F439
:1031CE00D7DFFACF583118F0AA27BB2788275830F7
:1031DE0028F0AB2FB82F88275850F9CF552329F058
:1031EE008695B795A7955A95D9F7502D512572F01A
:1031FE00CBDF38F46795F795E795739513F420C0F8
:10320E00B7DF3EDF5F910895D8F7FBCFEA1BFB0BCC
:10321E00680B51F010F40094BBDF662392F3EE0FAF
:10322E00FF1F661F7A95CBF7EE27FF2766277727B6
:10323E005F910895EFEFFFEF6FE77FEF5F910895D6
:10324E00EFEFFFEF6FE77FE75F9108955F932ADF60
:10325E00703851F3903841F301240894791F23F408
:10326E001CF300203AF3ECCF0F921F932F933F9352
:10327E004F93112722279927689FA0018F9F302DEA
:10328E00410D591F6B9F300D411D591F8E9F27D029
:10329E00BF9F25D06A9F23D0BE9F1DD0AF9F1BD04E
:1032AE00AE9F110D291F391F491F591FE32FF42FF0
:1032BE00652F522F4F913F912F911F910F906623A3
:1032CE002AF0550FEE1FFF1F661F02C073954BF2BB
:1032DE00CDDE5F910895100D211D391F02C0200D06
:1032EE00311D491F591F08955F93DCDE703821F49C
:1032FE0011200AF49FCFA4CF903809F495CF012462
:10330E000894970B1BF4D4F30020F3CF792F1F935F
:10331E002F933F934F9311241127222733274427AE
:10332E00552790E2AE17BF078607410730F0AE1B58
:10333E00BF0B860B410B089401C08894551F221FAA
:10334E00331F111CAA1FBB1F881F441F9A9551F7CC
:10335E00F901612D4F913F912F911F91662332F00C
:10336E00550FEE1FFF1F661F7A9543F27FDE5F91AA
:10337E0008950024AF0DB01D0895F195E195F0402C
:10338E000895F09560957095E195FF4F6F4F7F4FC3
:10339E000895EE230E2EEA2F19F0EE0F0A94E9F798
:1033AE000895EE230E2EEA2F19F0E6950A94E9F70A
:1033BE000895EE0FFF1FEE0FFF1FEE0FFF1FEE0F14
:1033CE00FF1F0895F695E795F695E795F695E7951F
:1033DE00F695E7950895FE2FFF0FFF0B6F2F7F2FAA
:1033EE000895EA17E1E009F0EE270895EA17E1E003
:1033FE0009F4EE2708956E2F6A9FF0016B9FF00D72
:10340E0008950024112490E1AA0FBB1F001C111C6B
:10341E000E1A1F0A18F40E0E1F1E01C0A1609A95F7
:10342E0099F7FD01D0010895ED91FC911197089542
:10343E00ED91FD916D917D9108957E936E93FE9326
:10344E00EE9308950590F491E02D0895E881F981A9
:10345E006A817B810895A881B9818A819B810895B3
:10346E00E883F9836A837B8308957A936A93FA9348
:10347E00EA9308959A938A93BA93AA930895182E6D
:10348E00862F612D192E972F712D1B2EBF2FF12DEB
:10349E001A2EAE2FE12D089530976040704008959A
:1034AE0000240A160B06089500240A160B060806B9
:1034BE00090608955A934A933A932A931A930A93B4
:1034CE0008955D814C813B812A811981088108957F
:00000001FF
