:103800000C94381C0C94511C0C94511C0C94511C9D
:103810000C94511C0C94511C0C94511C0C94511C74
:103820000C94511C0C94511C0C94511C0C94511C64
:103830000C94511C0C94511C0C94511C0C94511C54
:103840000C94511C0C94511C0C94511C0C94511C44
:103850000C94511C0C94511C0C94511C0C94511C34
:103860000C94511C0C94511C0C94511C0C94511C24
:1038700011241FBECFEFD4E0DEBFCDBF21E0A0E01A
:10388000B1E001C01D92A230B207E1F70E947F1C97
:103890000C94751FCFEFD4E0DEBFCDBF11241FBE47
:1038A0002EC00C94001C599A87E689B988E18AB920
:1038B00000000895813610F087550895813410F086
:1038C00087530895803310F08053089580E0089561
:1038D0001F93CF93DF931F92CDB7DEB769830E940A
:1038E0005A1C182F6981862F0E945A1C90E1199F3B
:1038F000800D11240F90DF91CF911F910895CF93E8
:10390000DF93CDB7DEB7C954D1090FB6F894DEBF47
:103910000FBECDBFF89482B3836082BB1FBC81E031
:103920008EBD84B7877F84BF81B5886181BD11BC9E
:10393000E199FECF83E090E00E94561F29968FAF59
:1039400029970E94531C29968FAD2997803821F022
:103950008BE30E94281F51C08AE30E94281F8DE03C
:103960000E94281F80E090E0DC0151E1809B0CC0A8
:103970000196A11DB11D81302AE6920728E1A20718
:10398000B105A0F341E001C040E01DBC1CBC809922
:103990000BC00196A11DB11D81303AE6930738E1B5
:1039A000A307B105A0F341E0513110F42CB53DB5AA
:1039B000515019F04423D1F241E016E8413079F436
:1039C0001EBC1DBC1CBC82B38C7F82BB10BC19B852
:1039D0001AB810BDE0910001F091010109958FE145
:1039E0009EE40197F1F700C000000E94531C0E9462
:1039F000341F0E94341F853519F783E60E94281F63
:103A000084E30E94281F85E30E94281F82E60E940B
:103A1000281F82E30E94281F80E20E94281F86E759
:103A20000E94281F82E30E94281F8EE20E94281F06
:103A300089E30E94281F8DE40E94281F8EE20E94C5
:103A4000281F80E30E94281F85E30E94281F1982F7
:103A50008DE00E94281F8EE30E94281F81E10E94B2
:103A6000281F10E00E94341FA1E0B0E0AC0FBD1F82
:103A7000A10FB11D8C938535A9F3833019F488E526
:103A8000898303C01F5F8A3069F7E12FF0E0DE0110
:103A9000AE0FBF1F1C92329721E030E02C0F3D1F6C
:103AA000E20FF31F80818D3009F4108283E10E94C0
:103AB000281FCE0101960E944A1F9981973651F026
:103AC00018F4953639F1C0C19D3621F1903709F4CB
:103AD0005EC0BAC18BE20E94281F8DE00E94281FA1
:103AE00081E10E94281F8FE19EE40197F1F700C059
:103AF00000001EBC1DBC1CBC82B38C7F82BB10BCF2
:103B000019B81AB886E880BDE0910001F091010172
:103B100009959ECF6C818B812A969FAF2A970E9430
:103B2000681C082F6E818D810E94681C10E0102F88
:103B30000027080F111D8A818737A9F468858F81B6
:103B40000E94681CF82E2A969FAD2A97953631F46C
:103B5000E199FECF6F2DC8010E94681F89818D36C3
:103B600011F4F801F0828981853629F4C8010E9498
:103B7000561F182F02C0F80110818BE20E94281FE7
:103B80008DE00E94281F812F0E94401F61CFE19984
:103B9000FECF6FEF83E090E00E94681F8BE20E94EF
:103BA000281F8DE00E94281F21E028962FAF28971C
:103BB0008A81853619F028961FAE2897E12CF12CC2
:103BC00000E010E044244A94542C320181E10E9428
:103BD000281FD12C0E94341FE1E0F0E0EC0FFD1F04
:103BE000ED0DF11D8083D3948A30A1F783E10E940B
:103BF000281FFE01ED0DF11D10826B818A810E944C
:103C0000681CB82E6D818C810E94681C382EC82ECD
:103C1000D12CDC2CCC246F818E810E94681CC80EB4
:103C2000D11C698588850E94681C982F3B0C380E32
:103C30003C0CAB2DB0E01596AA0FBB1F5D013AE01E
:103C4000A31AB108E1E0F0E0EC0FFD1FAE0FBF1FBB
:103C5000EAE0F0E0EC0FFD1FEA0DFB1D6C918081A6
:103C60002A969FAF2A970E94681C282E2A969FADFD
:103C70002A97923099F46B858A850E94681CC82E19
:103C8000D12CDC2CCC246D858C850E94681C76019F
:103C9000E80EF11C8D2D8E0D380E71C0913009F497
:103CA0006BC091116CC0FFEF4F165F066F067F0669
:103CB00019F42601612C712C470164E0880C991CD1
:103CC0006A95E1F7840C951C40E0C42ED12CCA14EF
:103CD000DB040CF054C0ABE0B0E0AC0FBD1FAC0D8A
:103CE000BD1DEAE0F0E0EC0FFD1FEC0DFD1D6C9139
:103CF000808129964FAF29970E94681C982FADE0CC
:103D0000B0E0AC0FBD1FAC0DBD1DECE0F0E0EC0F62
:103D1000FD1FEC0DFD1D6C9180812A969FAF2A97A7
:103D20000E94681C2A969FAD2A97292F280F320ED1
:103D300029964FAD299728962FAD2897213049F421
:103D4000E3E3F0E0EC0FFD1FE00FF11F90838183B0
:103D50000FC0282F30E0322F2227290F311DF80104
:103D6000E80DF91D81E0090180935700E8951124C1
:103D70000E5F1F4F4C5FA9CFDD24D39401C0D12C1F
:103D8000320C09F061C08EE20E94281F0038110534
:103D900040F428962FAD2897213019F031E0D31246
:103DA00045C08FEF481658066806780609F43EC0ED
:103DB000B70180E090E024E0660F771F881F991F0D
:103DC0002A95D1F7640D751D861D971D28962FAD78
:103DD0002897213041F4E199FECFA801CE01C39686
:103DE0000E945E1F1AC0611538E3730781059105B3
:103DF00058F523E0FB0120935700E89507B600FC37
:103E0000FDCF25E0FB0120935700E89507B600FCA5
:103E1000FDCF81E180935700E8958AE20E94281F38
:103E200000E010E044244A94542C3201DD2009F4CF
:103E3000CDCE8BE20E94281FE199FECF60E883E09F
:103E400090E00E94681F04CE8DE20E94281F00CEE1
:103E5000CF93C82F8D3019F48AE00E94281F5D9BF4
:103E6000FECFCCB9CF9108955F9BFECF8CB1089562
:103E70008F708A3010F0895A01C0805D0C94281F21
:103E8000CF93C82F82958F700E94381F8C2FCF91AF
:103E90000C94381FCF93DF93EC018991882319F09C
:103EA0000E94281FFACFDF91CF910895E199FECFAC
:103EB0009FBB8EBBE09A99278DB30895DC01CB019F
:103EC00003C02D910E94691F41505040D0F70895C2
:103ED000262FE199FECF9FBB8EBB2DBB0FB6F8946A
:0E3EE000E29AE19A0FBE01960895F894FFCF82
:0400000300003800C1
:00000001FF
